{
  "address": "0x0f9DA506728dD640B49Db9bA6b4BA7De0b0CE243",
  "abi": [
    {
      "inputs": [
        {
          "internalType": "address",
          "name": "_parent",
          "type": "address"
        },
        {
          "internalType": "address[]",
          "name": "_initialCitizens",
          "type": "address[]"
        },
        {
          "internalType": "bool",
          "name": "_councilMode",
          "type": "bool"
        },
        {
          "internalType": "address",
          "name": "_daoFactory",
          "type": "address"
        }
      ],
      "name": "createDao",
      "outputs": [
        {
          "internalType": "address",
          "name": "",
          "type": "address"
        }
      ],
      "stateMutability": "nonpayable",
      "type": "function"
    }
  ],
  "transactionHash": "0x9582e08b0ec28a37321fbdeddf19a65068b6d534ba95856928b484ff3f41d1f5",
  "args": [],
  "numDeployments": 1,
  "solcInputHash": "aee9300c7c4f28504b0eada0a8dc950e",
  "bytecode": "0x608060405234801561001057600080fd5b50613834806100206000396000f3fe608060405234801561001057600080fd5b506004361061002b5760003560e01c80634fc53bd114610030575b600080fd5b61004361003e366004610128565b61006c565b60405173ffffffffffffffffffffffffffffffffffffffff909116815260200160405180910390f35b6000808585858560405161007f906100b3565b61008c949392919061023f565b604051809103906000f0801580156100a8573d6000803e3d6000fd5b509695505050505050565b613544806102bb83390190565b803573ffffffffffffffffffffffffffffffffffffffff811681146100e457600080fd5b919050565b7f4e487b7100000000000000000000000000000000000000000000000000000000600052604160045260246000fd5b803580151581146100e457600080fd5b6000806000806080858703121561013e57600080fd5b610147856100c0565b935060208086013567ffffffffffffffff8082111561016557600080fd5b818801915088601f83011261017957600080fd5b81358181111561018b5761018b6100e9565b8060051b6040517fffffffffffffffffffffffffffffffffffffffffffffffffffffffffffffffe0603f830116810181811085821117156101ce576101ce6100e9565b60405291825284820192508381018501918b8311156101ec57600080fd5b938501935b8285101561021157610202856100c0565b845293850193928501926101f1565b80985050505050505061022660408601610118565b9150610234606086016100c0565b905092959194509250565b60006080820173ffffffffffffffffffffffffffffffffffffffff8088168452602060808186015282885180855260a087019150828a01945060005b8181101561029957855185168352948301949183019160010161027b565b5050961515604086015250939093166060909201919091525090939250505056fe60806040523480156200001157600080fd5b5060405162003544380380620035448339810160408190526200003491620001e6565b6000835111620000985760405162461bcd60e51b815260206004820152602560248201527f4174206c65617374206f6e6520696e697469616c20636974697a656e207265716044820152641d5a5c995960da1b606482015260840160405180910390fd5b600380546001600160a01b0319166001600160a01b0386161790556009805460ff191683151517905560005b835181101562000177576001600080868481518110620000e857620000e8620002f4565b6020908102919091018101516001600160a01b0316825281810192909252604090810160009081206001808352908452918120805460ff19169415159490941790935590527fcc69885fda6bcc1a4ace058b4a62bf5e179ea78fd58a1ccd71c22cc9b688792f8054916200015c836200030a565b919050555080806200016e906200030a565b915050620000c4565b50600780546001600160a01b0319166001600160a01b03929092169190911790555062000334915050565b80516001600160a01b0381168114620001ba57600080fd5b919050565b634e487b7160e01b600052604160045260246000fd5b80518015158114620001ba57600080fd5b60008060008060808587031215620001fd57600080fd5b6200020885620001a2565b602086810151919550906001600160401b03808211156200022857600080fd5b818801915088601f8301126200023d57600080fd5b815181811115620002525762000252620001bf565b8060051b604051601f19603f830116810181811085821117156200027a576200027a620001bf565b60405291825284820192508381018501918b8311156200029957600080fd5b938501935b82851015620002c257620002b285620001a2565b845293850193928501926200029e565b809850505050505050620002d960408601620001d5565b9150620002e960608601620001a2565b905092959194509250565b634e487b7160e01b600052603260045260246000fd5b60006000198214156200032d57634e487b7160e01b600052601160045260246000fd5b5060010190565b61320080620003446000396000f3fe608060405234801561001057600080fd5b50600436106101a35760003560e01c80635e3b4365116100ee5780638e1f6a2c11610097578063da35c66411610071578063da35c66414610421578063dd3d47461461042a578063ea6e56b41461043d578063f0723d971461044557600080fd5b80638e1f6a2c146103c0578063a257091a146103ee578063c7f758a81461040157600080fd5b8063765cb83a116100c8578063765cb83a1461037c57806382993ee51461038d57806386f2424a146103ad57600080fd5b80635e3b4365146103295780636a72da6a1461034957806373d6bc9b1461035c57600080fd5b80632e3036c71161015057806348425e2a1161012a57806348425e2a146102e357806348f7f2a3146102f65780635764dfcf1461031657600080fd5b80632e3036c7146102855780632f27fa24146102985780633372e937146102c657600080fd5b80630d61b519116101815780630d61b519146102045780630f1f4788146102175780631614665c1461027257600080fd5b8063013cf08b146101a85780630912ed77146101dc5780630a397d71146101f1575b600080fd5b6101bb6101b6366004612582565b610470565b6040516101d39c9b9a9998979695949392919061267b565b60405180910390f35b6101ef6101ea36600461276a565b610713565b005b6101ef6101ff366004612851565b6109c0565b6101ef610212366004612582565b610a41565b61024d610225366004612582565b60026020526000908152604090205473ffffffffffffffffffffffffffffffffffffffff1681565b60405173ffffffffffffffffffffffffffffffffffffffff90911681526020016101d3565b6101ef61028036600461290b565b610c68565b6101ef61029336600461276a565b610ede565b6102b86102a6366004612582565b60016020526000908152604090205481565b6040519081526020016101d3565b6009546102d39060ff1681565b60405190151581526020016101d3565b61024d6102f1366004612582565b611102565b60075461024d9073ffffffffffffffffffffffffffffffffffffffff1681565b6101ef61032436600461293b565b611139565b61033c610337366004612983565b611217565b6040516101d39190612a99565b6101ef61035736600461293b565b611675565b61036f61036a366004612983565b61174a565b6040516101d39190612b6a565b6101ef61038a366004612b84565b50565b60035461024d9073ffffffffffffffffffffffffffffffffffffffff1681565b6101ef6103bb366004612ba1565b61186d565b6102d36103ce366004612bd9565b600460209081526000928352604080842090915290825290205460ff1681565b6101ef6103fc366004612bd9565b61193a565b61041461040f366004612582565b611a60565b6040516101d39190612bfe565b6102b860065481565b6101ef610438366004612ca7565b611de3565b6008546102b8565b6102d361045336600461276a565b600060208181529281526040808220909352908152205460ff1681565b6005602052600090815260409020805460018201805460ff909216929161049690612d6a565b80601f01602080910402602001604051908101604052809291908181526020018280546104c290612d6a565b801561050f5780601f106104e45761010080835404028352916020019161050f565b820191906000526020600020905b8154815290600101906020018083116104f257829003601f168201915b5050505060028301546003840154600485018054949573ffffffffffffffffffffffffffffffffffffffff909316949193509061054b90612d6a565b80601f016020809104026020016040519081016040528092919081815260200182805461057790612d6a565b80156105c45780601f10610599576101008083540402835291602001916105c4565b820191906000526020600020905b8154815290600101906020018083116105a757829003601f168201915b5050505050908060050180546105d990612d6a565b80601f016020809104026020016040519081016040528092919081815260200182805461060590612d6a565b80156106525780601f1061062757610100808354040283529160200191610652565b820191906000526020600020905b81548152906001019060200180831161063557829003601f168201915b5050506006840154600785015460088601546009870154600a880154600b890180549899959894975060ff9384169650919492169261069090612d6a565b80601f01602080910402602001604051908101604052809291908181526020018280546106bc90612d6a565b80156107095780601f106106de57610100808354040283529160200191610709565b820191906000526020600020905b8154815290600101906020018083116106ec57829003601f168201915b505050505090508c565b60095460ff16156107cf5760035473ffffffffffffffffffffffffffffffffffffffff1633146107ca576040517f08c379a000000000000000000000000000000000000000000000000000000000815260206004820152602b60248201527f4f6e6c7920706172656e742064616f2063616e2075706461746520726f6c657360448201527f20696e20636f756e63696c00000000000000000000000000000000000000000060648201526084015b60405180910390fd5b61088c565b60008181526002602052604090205473ffffffffffffffffffffffffffffffffffffffff1633148061080057503330145b61088c576040517f08c379a000000000000000000000000000000000000000000000000000000000815260206004820152603a60248201527f4f6e6c792073656c66206f72206d61746368696e6720726f6c652068616e646c60448201527f65722063616e2075706461746520726f6c657320696e2044414f00000000000060648201526084016107c1565b73ffffffffffffffffffffffffffffffffffffffff821660009081526020818152604080832084845290915290205460ff16156109bc5760008181526001602081905260409091205411806108e2575080600114155b610948576040517f08c379a000000000000000000000000000000000000000000000000000000000815260206004820152601a60248201527f446f6e74206b696c6c20746865206c61737420636974697a656e00000000000060448201526064016107c1565b600081815260016020526040812080549161096283612ded565b909155505073ffffffffffffffffffffffffffffffffffffffff8216600090815260208181526040808320848452909152902080547fffffffffffffffffffffffffffffffffffffffffffffffffffffffffffffff001690555b5050565b600083836040516020016109d5929190612e22565b6040516020818303038152906040529050610a3b60036040518060400160405280601581526020017f526567697374657220526f6c652048616e646c65720000000000000000000000815250306000604051806020016040528060008152508688611de3565b50505050565b6000818152600560205260409020600881015460ff1615610abe576040517f08c379a000000000000000000000000000000000000000000000000000000000815260206004820152601960248201527f50726f706f73616c20616c72656164792065786563757465640000000000000060448201526064016107c1565b80600901544210610b2b576040517f08c379a000000000000000000000000000000000000000000000000000000000815260206004820152601460248201527f50726f706f73616c20686173206578706972656400000000000000000000000060448201526064016107c1565b610b3482612069565b15610c06576008810180547fffffffffffffffffffffffffffffffffffffffffffffffffffffffffffffff001660011790556002815460ff166003811115610b7e57610b7e61259b565b1415610bdf57600080610b9083612131565b600a850180547fffffffffffffffffffffffffffffffffffffffffffffffffffffffffffffff001683151517905580519193509150610bd890600b85019060208401906124e9565b5050505050565b6003815460ff166003811115610bf757610bf761259b565b14156109bc576109bc816122a4565b6040517f08c379a000000000000000000000000000000000000000000000000000000000815260206004820152601560248201527f50726f706f73616c20646964206e6f742070617373000000000000000000000060448201526064016107c1565b336000908152602081815260408083206001845290915290205460ff16610ceb576040517f08c379a000000000000000000000000000000000000000000000000000000000815260206004820152601660248201527f4e6f7420617574686f72697a656420746f20766f74650000000000000000000060448201526064016107c1565b6000828152600560205260409020600881015460ff1615610d68576040517f08c379a000000000000000000000000000000000000000000000000000000000815260206004820152601960248201527f50726f706f73616c20616c72656164792065786563757465640000000000000060448201526064016107c1565b80600901544210610dd5576040517f08c379a000000000000000000000000000000000000000000000000000000000815260206004820152601760248201527f566f74696e6720706572696f642068617320656e64656400000000000000000060448201526064016107c1565b600083815260046020908152604080832033845290915290205460ff1615610e59576040517f08c379a000000000000000000000000000000000000000000000000000000000815260206004820152600d60248201527f416c726561647920766f7465640000000000000000000000000000000000000060448201526064016107c1565b6000838152600460209081526040808320338452909152812080547fffffffffffffffffffffffffffffffffffffffffffffffffffffffffffffff0016600190811790915560078301805491929091610eb3908490612e46565b90915550508115610ed9576001816006016000828254610ed39190612e46565b90915550505b505050565b60095460ff1615610f955760035473ffffffffffffffffffffffffffffffffffffffff163314610f90576040517f08c379a000000000000000000000000000000000000000000000000000000000815260206004820152602b60248201527f4f6e6c7920706172656e742064616f2063616e2075706461746520726f6c657360448201527f20696e20636f756e63696c00000000000000000000000000000000000000000060648201526084016107c1565b611052565b60008181526002602052604090205473ffffffffffffffffffffffffffffffffffffffff16331480610fc657503330145b611052576040517f08c379a000000000000000000000000000000000000000000000000000000000815260206004820152603a60248201527f4f6e6c792073656c66206f72206d61746368696e6720726f6c652068616e646c60448201527f65722063616e2075706461746520726f6c657320696e2044414f00000000000060648201526084016107c1565b73ffffffffffffffffffffffffffffffffffffffff821660009081526020818152604080832084845290915290205460ff166109bc5760008181526001602052604081208054916110a283612e5e565b909155505073ffffffffffffffffffffffffffffffffffffffff8216600090815260208181526040808320848452909152902080547fffffffffffffffffffffffffffffffffffffffffffffffffffffffffffffff001660011790555050565b6008818154811061111257600080fd5b60009182526020909120015473ffffffffffffffffffffffffffffffffffffffff16905081565b604080518082018252601b81527f61737369676e526f6c652875696e743235362c61646472657373290000000000602080830191909152825173ffffffffffffffffffffffffffffffffffffffff861691810191909152918201859052908190600090606001604080517fffffffffffffffffffffffffffffffffffffffffffffffffffffffffffffffe0818403018152828201909152600b82527f41737369676e20726f6c650000000000000000000000000000000000000000006020830152915061120e9060029089600086868a611de3565b50505050505050565b6006546060906112278385612e46565b1115611240578260065461123b9190612e97565b611242565b815b91508167ffffffffffffffff81111561125d5761125d612796565b60405190808252806020026020018201604052801561130d57816020015b6112fa604080516101808101909152806000815260200160608152602001600073ffffffffffffffffffffffffffffffffffffffff168152602001600081526020016060815260200160608152602001600081526020016000815260200160001515815260200160008152602001600015158152602001606081525090565b81526020019060019003908161127b5790505b50905060005b6006546113208286612e46565b10801561132c57508281105b1561166e576005600061133f8387612e46565b815260208101919091526040908101600020815161018081019092528054829060ff1660038111156113735761137361259b565b60038111156113845761138461259b565b815260200160018201805461139890612d6a565b80601f01602080910402602001604051908101604052809291908181526020018280546113c490612d6a565b80156114115780601f106113e657610100808354040283529160200191611411565b820191906000526020600020905b8154815290600101906020018083116113f457829003601f168201915b5050509183525050600282015473ffffffffffffffffffffffffffffffffffffffff1660208201526003820154604082015260048201805460609092019161145890612d6a565b80601f016020809104026020016040519081016040528092919081815260200182805461148490612d6a565b80156114d15780601f106114a6576101008083540402835291602001916114d1565b820191906000526020600020905b8154815290600101906020018083116114b457829003601f168201915b505050505081526020016005820180546114ea90612d6a565b80601f016020809104026020016040519081016040528092919081815260200182805461151690612d6a565b80156115635780601f1061153857610100808354040283529160200191611563565b820191906000526020600020905b81548152906001019060200180831161154657829003601f168201915b50505091835250506006820154602082015260078201546040820152600882015460ff9081161515606083015260098301546080830152600a83015416151560a0820152600b8201805460c0909201916115bc90612d6a565b80601f01602080910402602001604051908101604052809291908181526020018280546115e890612d6a565b80156116355780601f1061160a57610100808354040283529160200191611635565b820191906000526020600020905b81548152906001019060200180831161161857829003601f168201915b50505050508152505082828151811061165057611650612eae565b6020026020010181905250808061166690612e5e565b915050611313565b5092915050565b604080518082018252601b81527f7265766f6b65526f6c652875696e743235362c61646472657373290000000000602080830191909152825173ffffffffffffffffffffffffffffffffffffffff861691810191909152918201859052908190600090606001604080517fffffffffffffffffffffffffffffffffffffffffffffffffffffffffffffffe0818403018152828201909152600b82527f5265766f6b6520726f6c650000000000000000000000000000000000000000006020830152915061120e9060029089600086868a611de3565b60085460609061175a8385612e46565b11156117735760085461176e908490612e97565b611775565b815b91508167ffffffffffffffff81111561179057611790612796565b6040519080825280602002602001820160405280156117b9578160200160208202803683370190505b50905060005b6008546117cc8286612e46565b1080156117d857508281105b1561166e5760086117e98286612e46565b815481106117f9576117f9612eae565b9060005260206000200160009054906101000a900473ffffffffffffffffffffffffffffffffffffffff1682828151811061183657611836612eae565b73ffffffffffffffffffffffffffffffffffffffff909216602092830291909101909101528061186581612e5e565b9150506117bf565b60006040518060600160405280602c815260200161319f602c913990506000819050600085856040516020016118c392919091825273ffffffffffffffffffffffffffffffffffffffff16602082015260400190565b604080517fffffffffffffffffffffffffffffffffffffffffffffffffffffffffffffffe0818403018152828201909152601582527f526567697374657220526f6c652048616e646c65720000000000000000000000602083015291506119329060029030600086868a611de3565b505050505050565b3330146119a3576040517f08c379a000000000000000000000000000000000000000000000000000000000815260206004820152600c60248201527f556e617574686f72697a6564000000000000000000000000000000000000000060448201526064016107c1565b60008211611a0d576040517f08c379a000000000000000000000000000000000000000000000000000000000815260206004820152600b60248201527f4d757374206265203e203000000000000000000000000000000000000000000060448201526064016107c1565b60009182526002602052604090912080547fffffffffffffffffffffffff00000000000000000000000000000000000000001673ffffffffffffffffffffffffffffffffffffffff909216919091179055565b611adf604080516101808101909152806000815260200160608152602001600073ffffffffffffffffffffffffffffffffffffffff168152602001600081526020016060815260200160608152602001600081526020016000815260200160001515815260200160008152602001600015158152602001606081525090565b60008281526005602052604090819020815161018081019092528054829060ff166003811115611b1157611b1161259b565b6003811115611b2257611b2261259b565b8152602001600182018054611b3690612d6a565b80601f0160208091040260200160405190810160405280929190818152602001828054611b6290612d6a565b8015611baf5780601f10611b8457610100808354040283529160200191611baf565b820191906000526020600020905b815481529060010190602001808311611b9257829003601f168201915b5050509183525050600282015473ffffffffffffffffffffffffffffffffffffffff16602082015260038201546040820152600482018054606090920191611bf690612d6a565b80601f0160208091040260200160405190810160405280929190818152602001828054611c2290612d6a565b8015611c6f5780601f10611c4457610100808354040283529160200191611c6f565b820191906000526020600020905b815481529060010190602001808311611c5257829003601f168201915b50505050508152602001600582018054611c8890612d6a565b80601f0160208091040260200160405190810160405280929190818152602001828054611cb490612d6a565b8015611d015780601f10611cd657610100808354040283529160200191611d01565b820191906000526020600020905b815481529060010190602001808311611ce457829003601f168201915b50505091835250506006820154602082015260078201546040820152600882015460ff9081161515606083015260098301546080830152600a83015416151560a0820152600b8201805460c090920191611d5a90612d6a565b80601f0160208091040260200160405190810160405280929190818152602001828054611d8690612d6a565b8015611dd35780601f10611da857610100808354040283529160200191611dd3565b820191906000526020600020905b815481529060010190602001808311611db657829003601f168201915b5050505050815250509050919050565b6001876003811115611df757611df761259b565b1480611e1457506002876003811115611e1257611e1261259b565b145b80611e3057506003876003811115611e2e57611e2e61259b565b145b611e96576040517f08c379a000000000000000000000000000000000000000000000000000000000815260206004820152601560248201527f496e76616c69642070726f706f73616c2074797065000000000000000000000060448201526064016107c1565b6003876003811115611eaa57611eaa61259b565b141580611ecb575073ffffffffffffffffffffffffffffffffffffffff8516155b611f57576040517f08c379a000000000000000000000000000000000000000000000000000000000815260206004820152602760248201527f53756244414f2070726f706f73616c73206d757374206e6f742068617665206160448201527f207461726765740000000000000000000000000000000000000000000000000060648201526084016107c1565b60068054600091600591839182611f6d83612e5e565b90915550815260208101919091526040016000208054909150889082907fffffffffffffffffffffffffffffffffffffffffffffffffffffffffffffff00166001836003811115611fc057611fc061259b565b02179055508651611fda90600183019060208a01906124e9565b506002810180547fffffffffffffffffffffffff00000000000000000000000000000000000000001673ffffffffffffffffffffffffffffffffffffffff881617905560038101859055835161203990600483019060208701906124e9565b50825161204f90600583019060208601906124e9565b5061205a8242612e46565b60099091015550505050505050565b6000818152600560209081526040822060018084529091527fcc69885fda6bcc1a4ace058b4a62bf5e179ea78fd58a1ccd71c22cc9b688792f5482906064906120b3906042612edd565b6120bd9190612f1a565b9050808260060154101580156121295750600160008190526020527fcc69885fda6bcc1a4ace058b4a62bf5e179ea78fd58a1ccd71c22cc9b688792f54606490612108906022612edd565b6121129190612f1a565b826006015483600701546121269190612e97565b11155b949350505050565b600281015460009060609073ffffffffffffffffffffffffffffffffffffffff166121b8576040517f08c379a000000000000000000000000000000000000000000000000000000000815260206004820152601660248201527f496e76616c69642074617267657420616464726573730000000000000000000060448201526064016107c1565b6000836004016040516121cb9190613025565b60405180910390209050600081856005016040516020016121ed929190613031565b604080517fffffffffffffffffffffffffffffffffffffffffffffffffffffffffffffffe08184030181529082905260028701546003880154919350600092839273ffffffffffffffffffffffffffffffffffffffff9092169190612253908690613065565b60006040518083038185875af1925050503d8060008114612290576040519150601f19603f3d011682016040523d82523d6000602084013e612295565b606091505b50909890975095505050505050565b6003815460ff1660038111156122bc576122bc61259b565b14612323576040517f08c379a000000000000000000000000000000000000000000000000000000000815260206004820152601560248201527f496e76616c69642070726f706f73616c2074797065000000000000000000000060448201526064016107c1565b60008082600501805461233590612d6a565b80601f016020809104026020016040519081016040528092919081815260200182805461236190612d6a565b80156123ae5780601f10612383576101008083540402835291602001916123ae565b820191906000526020600020905b81548152906001019060200180831161239157829003601f168201915b50505050508060200190518101906123c6919061308c565b6007546040517f4fc53bd100000000000000000000000000000000000000000000000000000000815292945090925060009173ffffffffffffffffffffffffffffffffffffffff90911690634fc53bd19061242b903090879087908690600401613138565b6020604051808303816000875af115801561244a573d6000803e3d6000fd5b505050506040513d601f19601f8201168201806040525081019061246e9190613181565b600880546001810182556000919091527ff3f7a9fe364faab93b216da50a3214154f22a0a2b415b23a84c8169e8b636ee30180547fffffffffffffffffffffffff00000000000000000000000000000000000000001673ffffffffffffffffffffffffffffffffffffffff9290921691909117905550505050565b8280546124f590612d6a565b90600052602060002090601f016020900481019282612517576000855561255d565b82601f1061253057805160ff191683800117855561255d565b8280016001018555821561255d579182015b8281111561255d578251825591602001919060010190612542565b5061256992915061256d565b5090565b5b80821115612569576000815560010161256e565b60006020828403121561259457600080fd5b5035919050565b7f4e487b7100000000000000000000000000000000000000000000000000000000600052602160045260246000fd5b60048110612601577f4e487b7100000000000000000000000000000000000000000000000000000000600052602160045260246000fd5b9052565b60005b83811015612620578181015183820152602001612608565b83811115610a3b5750506000910152565b60008151808452612649816020860160208601612605565b601f017fffffffffffffffffffffffffffffffffffffffffffffffffffffffffffffffe0169290920160200192915050565b612685818e6125ca565b6101806020820152600061269d61018083018e612631565b73ffffffffffffffffffffffffffffffffffffffff8d1660408401528b606084015282810360808401526126d1818c612631565b905082810360a08401526126e5818b612631565b90508860c08401528760e08401528615156101008401528561012084015261271261014084018615159052565b8281036101608401526127258185612631565b9f9e505050505050505050505050505050565b73ffffffffffffffffffffffffffffffffffffffff8116811461038a57600080fd5b803561276581612738565b919050565b6000806040838503121561277d57600080fd5b823561278881612738565b946020939093013593505050565b7f4e487b7100000000000000000000000000000000000000000000000000000000600052604160045260246000fd5b604051601f82017fffffffffffffffffffffffffffffffffffffffffffffffffffffffffffffffe016810167ffffffffffffffff8111828210171561280c5761280c612796565b604052919050565b600067ffffffffffffffff82111561282e5761282e612796565b5060051b60200190565b801515811461038a57600080fd5b803561276581612838565b60008060006060848603121561286657600080fd5b833567ffffffffffffffff81111561287d57600080fd5b8401601f8101861361288e57600080fd5b803560206128a361289e83612814565b6127c5565b82815260059290921b830181019181810190898411156128c257600080fd5b938201935b838510156128e95784356128da81612738565b825293820193908201906128c7565b96506128f89050878201612846565b9450505050604084013590509250925092565b6000806040838503121561291e57600080fd5b82359150602083013561293081612838565b809150509250929050565b6000806000806080858703121561295157600080fd5b843561295c81612738565b935060208501359250604085013561297381612738565b9396929550929360600135925050565b6000806040838503121561299657600080fd5b50508035926020909101359150565b60006101806129b58484516125ca565b60208301518160208601526129cc82860182612631565b91505060408301516129f6604086018273ffffffffffffffffffffffffffffffffffffffff169052565b506060830151606085015260808301518482036080860152612a188282612631565b91505060a083015184820360a0860152612a328282612631565b91505060c083015160c085015260e083015160e085015261010080840151612a5d8287018215159052565b50506101208381015190850152610140808401511515908501526101608084015185830382870152612a8f8382612631565b9695505050505050565b6000602080830181845280855180835260408601915060408160051b870101925083870160005b82811015612b0c577fffffffffffffffffffffffffffffffffffffffffffffffffffffffffffffffc0888603018452612afa8583516129a5565b94509285019290850190600101612ac0565b5092979650505050505050565b600081518084526020808501945080840160005b83811015612b5f57815173ffffffffffffffffffffffffffffffffffffffff1687529582019590820190600101612b2d565b509495945050505050565b602081526000612b7d6020830184612b19565b9392505050565b600060208284031215612b9657600080fd5b8135612b7d81612738565b600080600060608486031215612bb657600080fd5b833592506020840135612bc881612738565b929592945050506040919091013590565b60008060408385031215612bec57600080fd5b82359150602083013561293081612738565b602081526000612b7d60208301846129a5565b600067ffffffffffffffff831115612c2b57612c2b612796565b612c5c60207fffffffffffffffffffffffffffffffffffffffffffffffffffffffffffffffe0601f860116016127c5565b9050828152838383011115612c7057600080fd5b828260208301376000602084830101529392505050565b600082601f830112612c9857600080fd5b612b7d83833560208501612c11565b600080600080600080600060e0888a031215612cc257600080fd5b873560048110612cd157600080fd5b9650602088013567ffffffffffffffff80821115612cee57600080fd5b612cfa8b838c01612c87565b9750612d0860408b0161275a565b965060608a0135955060808a0135915080821115612d2557600080fd5b612d318b838c01612c87565b945060a08a0135915080821115612d4757600080fd5b50612d548a828b01612c87565b92505060c0880135905092959891949750929550565b600181811c90821680612d7e57607f821691505b60208210811415612db8577f4e487b7100000000000000000000000000000000000000000000000000000000600052602260045260246000fd5b50919050565b7f4e487b7100000000000000000000000000000000000000000000000000000000600052601160045260246000fd5b600081612dfc57612dfc612dbe565b507fffffffffffffffffffffffffffffffffffffffffffffffffffffffffffffffff0190565b604081526000612e356040830185612b19565b905082151560208301529392505050565b60008219821115612e5957612e59612dbe565b500190565b60007fffffffffffffffffffffffffffffffffffffffffffffffffffffffffffffffff821415612e9057612e90612dbe565b5060010190565b600082821015612ea957612ea9612dbe565b500390565b7f4e487b7100000000000000000000000000000000000000000000000000000000600052603260045260246000fd5b6000817fffffffffffffffffffffffffffffffffffffffffffffffffffffffffffffffff0483118215151615612f1557612f15612dbe565b500290565b600082612f50577f4e487b7100000000000000000000000000000000000000000000000000000000600052601260045260246000fd5b500490565b8054600090600181811c9080831680612f6f57607f831692505b6020808410821415612faa577f4e487b7100000000000000000000000000000000000000000000000000000000600052602260045260246000fd5b818015612fbe5760018114612fed57613019565b7fffffffffffffffffffffffffffffffffffffffffffffffffffffffffffffff00861689528489019650613019565b876000528160002060005b868110156130115781548b820152908501908301612ff8565b505084890196505b50505050505092915050565b6000612b7d8284612f55565b7fffffffff000000000000000000000000000000000000000000000000000000008316815260006121296004830184612f55565b60008251613077818460208701612605565b9190910192915050565b805161276581612838565b6000806040838503121561309f57600080fd5b825167ffffffffffffffff8111156130b657600080fd5b8301601f810185136130c757600080fd5b805160206130d761289e83612814565b82815260059290921b830181019181810190888411156130f657600080fd5b938201935b8385101561311d57845161310e81612738565b825293820193908201906130fb565b955061312c9050868201613081565b93505050509250929050565b600073ffffffffffffffffffffffffffffffffffffffff8087168352608060208401526131686080840187612b19565b9415156040840152929092166060909101525092915050565b60006020828403121561319357600080fd5b8151612b7d8161273856fe696e7465726e616c5265676973746572526f6c6548616e646c65722875696e743235362c6164647265737329a264697066735822122033a9487bfd0724433f10e0cd97208fbfc2f2e663d08532dec789b88b97abfbc364736f6c634300080a0033a26469706673582212201718d7c679f4cd7d4a1972948a677f2f72883ef4177f6da4cdccb5da3068a56f64736f6c634300080a0033",
  "devdoc": {
    "kind": "dev",
    "methods": {},
    "version": 1
  },
  "userdoc": {
    "kind": "user",
    "methods": {},
    "version": 1
  },
  "storageLayout": {
    "storage": [],
    "types": null
  }
}