{
  "address": "0x7CEa343C9cB4bdB10810909C86564252fC117480",
  "abi": [
    {
      "inputs": [
        {
          "internalType": "address",
          "name": "newOwner",
          "type": "address"
        }
      ],
      "stateMutability": "nonpayable",
      "type": "constructor"
    },
    {
      "inputs": [],
      "name": "owner",
      "outputs": [
        {
          "internalType": "address",
          "name": "",
          "type": "address"
        }
      ],
      "stateMutability": "view",
      "type": "function"
    },
    {
      "inputs": [
        {
          "internalType": "uint256",
          "name": "",
          "type": "uint256"
        }
      ],
      "name": "properties",
      "outputs": [
        {
          "internalType": "uint256",
          "name": "propertyType",
          "type": "uint256"
        },
        {
          "internalType": "address",
          "name": "owner",
          "type": "address"
        },
        {
          "internalType": "bytes",
          "name": "propertyData",
          "type": "bytes"
        }
      ],
      "stateMutability": "view",
      "type": "function"
    },
    {
      "inputs": [
        {
          "internalType": "uint256",
          "name": "",
          "type": "uint256"
        }
      ],
      "name": "propertyTypeHandlers",
      "outputs": [
        {
          "internalType": "contract IPropertyTypeHandler",
          "name": "",
          "type": "address"
        }
      ],
      "stateMutability": "view",
      "type": "function"
    },
    {
      "inputs": [
        {
          "internalType": "uint256",
          "name": "propertyId",
          "type": "uint256"
        },
        {
          "internalType": "uint256",
          "name": "propertyType",
          "type": "uint256"
        },
        {
          "internalType": "address",
          "name": "owner",
          "type": "address"
        },
        {
          "internalType": "bytes",
          "name": "details",
          "type": "bytes"
        }
      ],
      "name": "registerProperty",
      "outputs": [],
      "stateMutability": "nonpayable",
      "type": "function"
    },
    {
      "inputs": [
        {
          "internalType": "uint256",
          "name": "propertyType",
          "type": "uint256"
        },
        {
          "internalType": "address",
          "name": "handlerAddress",
          "type": "address"
        }
      ],
      "name": "registerPropertyTypeHandler",
      "outputs": [],
      "stateMutability": "nonpayable",
      "type": "function"
    },
    {
      "inputs": [
        {
          "internalType": "uint256",
          "name": "propertyId",
          "type": "uint256"
        },
        {
          "internalType": "address",
          "name": "newOwner",
          "type": "address"
        }
      ],
      "name": "transferOwnership",
      "outputs": [],
      "stateMutability": "nonpayable",
      "type": "function"
    },
    {
      "inputs": [
        {
          "internalType": "address",
          "name": "newOwner",
          "type": "address"
        }
      ],
      "name": "transferOwnership",
      "outputs": [],
      "stateMutability": "nonpayable",
      "type": "function"
    },
    {
      "inputs": [
        {
          "internalType": "uint256",
          "name": "propertyId",
          "type": "uint256"
        },
        {
          "internalType": "bytes",
          "name": "newDetails",
          "type": "bytes"
        }
      ],
      "name": "updateRegistry",
      "outputs": [],
      "stateMutability": "nonpayable",
      "type": "function"
    },
    {
      "inputs": [
        {
          "internalType": "uint256",
          "name": "propertyId",
          "type": "uint256"
        }
      ],
      "name": "verifyOwnership",
      "outputs": [
        {
          "internalType": "address",
          "name": "",
          "type": "address"
        }
      ],
      "stateMutability": "view",
      "type": "function"
    }
  ],
  "transactionHash": "0xfc1f15986225d7f635cde4b6719982d28b7b68e456a4426be7ded7fd7b342178",
  "args": [
    "0x27F7D4AA317033380b5b911Ed15415E27cBec37f"
  ],
  "numDeployments": 5,
  "solcInputHash": "593018e2cce81fc1fb66bedc48e3099f",
  "bytecode": "0x608060405234801561001057600080fd5b5060405161121738038061121783398101604081905261002f91610058565b600080546001600160a01b03199081163391909116176001600160a01b03831617905550610088565b60006020828403121561006a57600080fd5b81516001600160a01b038116811461008157600080fd5b9392505050565b611180806100976000396000f3fe608060405234801561001057600080fd5b50600436106100a35760003560e01c80638da5cb5b11610076578063de611ee51161005b578063de611ee514610176578063f2fde38b146101b0578063f7b10808146101c357600080fd5b80638da5cb5b14610143578063da461f6f1461016357600080fd5b80630e6655d7146100a8578063241bfca4146100bd57806329507f73146100d05780637db2fea2146100e3575b600080fd5b6100bb6100b6366004610c76565b6101e5565b005b6100bb6100cb366004610cd9565b61044c565b6100bb6100de366004610d20565b61069b565b6101196100f1366004610d50565b60026020526000908152604090205473ffffffffffffffffffffffffffffffffffffffff1681565b60405173ffffffffffffffffffffffffffffffffffffffff90911681526020015b60405180910390f35b6000546101199073ffffffffffffffffffffffffffffffffffffffff1681565b6100bb610171366004610d20565b6107ac565b610119610184366004610d50565b6000908152600160208190526040909120015473ffffffffffffffffffffffffffffffffffffffff1690565b6100bb6101be366004610d69565b6108ea565b6101d66101d1366004610d50565b6109b2565b60405161013a93929190610e03565b60008481526001602052604090205415610260576040517f08c379a000000000000000000000000000000000000000000000000000000000815260206004820152600f60248201527f50726f706572747920657869737473000000000000000000000000000000000060448201526064015b60405180910390fd5b60008381526002602052604090205473ffffffffffffffffffffffffffffffffffffffff166102eb576040517f08c379a000000000000000000000000000000000000000000000000000000000815260206004820152601560248201527f556e6b6e6f776e2070726f7065727479207479706500000000000000000000006044820152606401610257565b600083815260026020526040908190205490517f8c8b6f6700000000000000000000000000000000000000000000000000000000815273ffffffffffffffffffffffffffffffffffffffff90911690638c8b6f67906103569033908890889088908890600401610e41565b6000604051808303816000875af1158015610375573d6000803e3d6000fd5b505050506040513d6000823e601f3d9081017fffffffffffffffffffffffffffffffffffffffffffffffffffffffffffffffe01682016040526103bb9190810190610e91565b600085815260016020818152604092839020845181558482015192810180547fffffffffffffffffffffffff00000000000000000000000000000000000000001673ffffffffffffffffffffffffffffffffffffffff90941693909317909255918301518051919261043592600285019290910190610a75565b505050600093845250506001602052604090912055565b6000828152600160205260409020548290806104c4576040517f08c379a000000000000000000000000000000000000000000000000000000000815260206004820152601760248201527f50726f706572747920646f6573206e6f742065786973740000000000000000006044820152606401610257565b60008481526001602081815260408084208054855260028352818520549489905292909152517f0c033ca900000000000000000000000000000000000000000000000000000000815273ffffffffffffffffffffffffffffffffffffffff90921691630c033ca99161053e913391899189906004016110b9565b600060405180830381865afa15801561055b573d6000803e3d6000fd5b505050506040513d6000823e601f3d9081017fffffffffffffffffffffffffffffffffffffffffffffffffffffffffffffffe01682016040526105a19190810190610e91565b600085815260016020818152604092839020845181558482015192810180547fffffffffffffffffffffffff00000000000000000000000000000000000000001673ffffffffffffffffffffffffffffffffffffffff90941693909317909255918301518051919261061b92600285019290910190610a75565b5050506000828152600160205260409020548114610695576040517f08c379a000000000000000000000000000000000000000000000000000000000815260206004820152601a60248201527f48616e646c6572206368616e6765642070726f706572747949640000000000006044820152606401610257565b50505050565b600082815260016020526040902054829080610713576040517f08c379a000000000000000000000000000000000000000000000000000000000815260206004820152601760248201527f50726f706572747920646f6573206e6f742065786973740000000000000000006044820152606401610257565b60008481526001602081815260408084208054855260028352818520549489905292909152517f3a729f4600000000000000000000000000000000000000000000000000000000815273ffffffffffffffffffffffffffffffffffffffff90921691633a729f469161078d91339189918990600401611100565b6000604051808303816000875af115801561055b573d6000803e3d6000fd5b60005473ffffffffffffffffffffffffffffffffffffffff16331461082d576040517f08c379a000000000000000000000000000000000000000000000000000000000815260206004820152600960248201527f4e6f74206f776e657200000000000000000000000000000000000000000000006044820152606401610257565b60008211610897576040517f08c379a000000000000000000000000000000000000000000000000000000000815260206004820152600b60248201527f4d757374206265203e20300000000000000000000000000000000000000000006044820152606401610257565b60009182526002602052604090912080547fffffffffffffffffffffffff00000000000000000000000000000000000000001673ffffffffffffffffffffffffffffffffffffffff909216919091179055565b60005473ffffffffffffffffffffffffffffffffffffffff16331461096b576040517f08c379a000000000000000000000000000000000000000000000000000000000815260206004820152600960248201527f4e6f74206f776e657200000000000000000000000000000000000000000000006044820152606401610257565b600080547fffffffffffffffffffffffff00000000000000000000000000000000000000001673ffffffffffffffffffffffffffffffffffffffff92909216919091179055565b600160208190526000918252604090912080549181015460028201805473ffffffffffffffffffffffffffffffffffffffff90921692916109f290610f56565b80601f0160208091040260200160405190810160405280929190818152602001828054610a1e90610f56565b8015610a6b5780601f10610a4057610100808354040283529160200191610a6b565b820191906000526020600020905b815481529060010190602001808311610a4e57829003601f168201915b5050505050905083565b828054610a8190610f56565b90600052602060002090601f016020900481019282610aa35760008555610ae9565b82601f10610abc57805160ff1916838001178555610ae9565b82800160010185558215610ae9579182015b82811115610ae9578251825591602001919060010190610ace565b50610af5929150610af9565b5090565b5b80821115610af55760008155600101610afa565b73ffffffffffffffffffffffffffffffffffffffff81168114610b3057600080fd5b50565b7f4e487b7100000000000000000000000000000000000000000000000000000000600052604160045260246000fd5b6040516060810167ffffffffffffffff81118282101715610b8557610b85610b33565b60405290565b604051601f82017fffffffffffffffffffffffffffffffffffffffffffffffffffffffffffffffe016810167ffffffffffffffff81118282101715610bd257610bd2610b33565b604052919050565b600067ffffffffffffffff821115610bf457610bf4610b33565b50601f017fffffffffffffffffffffffffffffffffffffffffffffffffffffffffffffffe01660200190565b600082601f830112610c3157600080fd5b8135610c44610c3f82610bda565b610b8b565b818152846020838601011115610c5957600080fd5b816020850160208301376000918101602001919091529392505050565b60008060008060808587031215610c8c57600080fd5b84359350602085013592506040850135610ca581610b0e565b9150606085013567ffffffffffffffff811115610cc157600080fd5b610ccd87828801610c20565b91505092959194509250565b60008060408385031215610cec57600080fd5b82359150602083013567ffffffffffffffff811115610d0a57600080fd5b610d1685828601610c20565b9150509250929050565b60008060408385031215610d3357600080fd5b823591506020830135610d4581610b0e565b809150509250929050565b600060208284031215610d6257600080fd5b5035919050565b600060208284031215610d7b57600080fd5b8135610d8681610b0e565b9392505050565b60005b83811015610da8578181015183820152602001610d90565b838111156106955750506000910152565b60008151808452610dd1816020860160208601610d8d565b601f017fffffffffffffffffffffffffffffffffffffffffffffffffffffffffffffffe0169290920160200192915050565b83815273ffffffffffffffffffffffffffffffffffffffff83166020820152606060408201526000610e386060830184610db9565b95945050505050565b600073ffffffffffffffffffffffffffffffffffffffff808816835286602084015285604084015280851660608401525060a06080830152610e8660a0830184610db9565b979650505050505050565b60006020808385031215610ea457600080fd5b825167ffffffffffffffff80821115610ebc57600080fd5b9084019060608287031215610ed057600080fd5b610ed8610b62565b8251815283830151610ee981610b0e565b81850152604083015182811115610eff57600080fd5b80840193505086601f840112610f1457600080fd5b82519150610f24610c3f83610bda565b8281528785848601011115610f3857600080fd5b610f4783868301878701610d8d565b60408201529695505050505050565b600181811c90821680610f6a57607f821691505b60208210811415610fa4577f4e487b7100000000000000000000000000000000000000000000000000000000600052602260045260246000fd5b50919050565b805482526000600173ffffffffffffffffffffffffffffffffffffffff81840154166020818187015260028501915060606040870152600082548181861c905085821680610ff957607f821691505b848210811415611030577f4e487b710000000000000000000000000000000000000000000000000000000084526022600452602484fd5b60608a0182905260808a0181801561104f576001811461107e576110a9565b7fffffffffffffffffffffffffffffffffffffffffffffffffffffffffffffff008516825286820195506110a9565b60008881526020902060005b858110156110a357815484820152908a0190880161108a565b83019650505b50939a9950505050505050505050565b73ffffffffffffffffffffffffffffffffffffffff851681528360208201526080604082015260006110ee6080830185610faa565b8281036060840152610e868185610db9565b600073ffffffffffffffffffffffffffffffffffffffff8087168352856020840152608060408401526111366080840186610faa565b91508084166060840152509594505050505056fea26469706673582212201f81da19d85a62131ccfaf13e266d2ecea1d99a35c139d3ed3277ef99ad7ebc164736f6c634300080a0033",
  "devdoc": {
    "kind": "dev",
    "methods": {},
    "version": 1
  },
  "userdoc": {
    "kind": "user",
    "methods": {},
    "version": 1
  },
  "storageLayout": {
    "storage": [
      {
        "astId": 63,
        "contract": "contracts/PropertyRegistryContract.sol:PropertyRegistryContract",
        "label": "owner",
        "offset": 0,
        "slot": "0",
        "type": "t_address"
      },
      {
        "astId": 154,
        "contract": "contracts/PropertyRegistryContract.sol:PropertyRegistryContract",
        "label": "properties",
        "offset": 0,
        "slot": "1",
        "type": "t_mapping(t_uint256,t_struct(Property)8_storage)"
      },
      {
        "astId": 159,
        "contract": "contracts/PropertyRegistryContract.sol:PropertyRegistryContract",
        "label": "propertyTypeHandlers",
        "offset": 0,
        "slot": "2",
        "type": "t_mapping(t_uint256,t_contract(IPropertyTypeHandler)59)"
      }
    ],
    "types": {
      "t_address": {
        "encoding": "inplace",
        "label": "address",
        "numberOfBytes": "20"
      },
      "t_bytes_storage": {
        "encoding": "bytes",
        "label": "bytes",
        "numberOfBytes": "32"
      },
      "t_contract(IPropertyTypeHandler)59": {
        "encoding": "inplace",
        "label": "contract IPropertyTypeHandler",
        "numberOfBytes": "20"
      },
      "t_mapping(t_uint256,t_contract(IPropertyTypeHandler)59)": {
        "encoding": "mapping",
        "key": "t_uint256",
        "label": "mapping(uint256 => contract IPropertyTypeHandler)",
        "numberOfBytes": "32",
        "value": "t_contract(IPropertyTypeHandler)59"
      },
      "t_mapping(t_uint256,t_struct(Property)8_storage)": {
        "encoding": "mapping",
        "key": "t_uint256",
        "label": "mapping(uint256 => struct IPropertyRegistryContract.Property)",
        "numberOfBytes": "32",
        "value": "t_struct(Property)8_storage"
      },
      "t_struct(Property)8_storage": {
        "encoding": "inplace",
        "label": "struct IPropertyRegistryContract.Property",
        "members": [
          {
            "astId": 3,
            "contract": "contracts/PropertyRegistryContract.sol:PropertyRegistryContract",
            "label": "propertyType",
            "offset": 0,
            "slot": "0",
            "type": "t_uint256"
          },
          {
            "astId": 5,
            "contract": "contracts/PropertyRegistryContract.sol:PropertyRegistryContract",
            "label": "owner",
            "offset": 0,
            "slot": "1",
            "type": "t_address"
          },
          {
            "astId": 7,
            "contract": "contracts/PropertyRegistryContract.sol:PropertyRegistryContract",
            "label": "propertyData",
            "offset": 0,
            "slot": "2",
            "type": "t_bytes_storage"
          }
        ],
        "numberOfBytes": "96"
      },
      "t_uint256": {
        "encoding": "inplace",
        "label": "uint256",
        "numberOfBytes": "32"
      }
    }
  }
}